:100000000C945C000C9479000C9479000C947900A9
:100010000C9479000C9479000C9479000C9479007C
:100020000C9479000C9479000C9479000C9479006C
:100030000C9479000C9479000C9479000C9479005C
:100040000C9421010C9479000C9479000C947900A3
:100050000C9479000C9479000C9479000C9479003C
:100060000C9479000C947900000000080002010053
:100070000003040700000000000000000000000072
:10008000250028002B0000000000240027002A0083
:10009000040404040404040402020202020203032E
:1000A0000303030301020408102040800102040836
:1000B000102001020408102011241FBECFEFD8E049
:1000C000DEBFCDBF11E0A0E0B1E0E2E2F4E002C0AB
:1000D00005900D92A830B107D9F721E0A8E0B1E072
:1000E00001C01D92A131B207E1F70E946B010C948F
:1000F0000F020C94000090E0FC01E859FF4F24919E
:10010000FC01EC55FF4F3491FC01E057FF4FE491A7
:10011000EE23C9F0222339F0233001F1A8F4213075
:1001200019F1223029F1F0E0EE0FFF1FE458FF4FE4
:10013000A591B4918FB7F894EC91611126C03095D8
:100140003E233C938FBF08952730A9F02830C9F093
:10015000243049F7809180008F7D03C0809180001A
:100160008F7780938000DFCF84B58F7784BDDBCF1E
:1001700084B58F7DFBCF8091B0008F778093B000E6
:10018000D2CF8091B0008F7DF9CF3E2BDACF3FB731
:10019000F89480910D0190910E01A0910F01B09102
:1001A000100126B5A89B05C02F3F19F00196A11D8F
:1001B000B11D3FBFBA2FA92F982F8827BC01CD01B1
:1001C000620F711D811D911D42E0660F771F881F10
:1001D000991F4A95D1F708958F929F92AF92BF923F
:1001E000CF92DF92EF92FF920E94C7004B015C0119
:1001F00084E6C82ED12CE12CF12C0E94C70068198E
:1002000079098A099B09683E734081059105A8F325
:1002100021E0C21AD108E108F10888EE880E83E0D7
:10022000981EA11CB11CC114D104E104F10429F7EA
:10023000FF90EF90DF90CF90BF90AF909F908F9006
:1002400008951F920F920FB60F9211242F933F9390
:100250008F939F93AF93BF938091090190910A016F
:10026000A0910B01B0910C013091080123E0230F04
:100270002D3758F50196A11DB11D209308018093DB
:10028000090190930A01A0930B01B0930C01809196
:100290000D0190910E01A0910F01B09110010196F6
:1002A000A11DB11D80930D0190930E01A0930F012C
:1002B000B0931001BF91AF919F918F913F912F917A
:1002C0000F900FBE0F901F90189526E8230F0296EF
:1002D000A11DB11DD2CF789484B5826084BD84B550
:1002E000816084BD85B5826085BD85B5816085BD31
:1002F00080916E00816080936E00109281008091E9
:100300008100826080938100809181008160809370
:100310008100809180008160809380008091B10095
:1003200084608093B1008091B00081608093B000C0
:1003300080917A00846080937A0080917A00826054
:1003400080937A0080917A00816080937A00809116
:100350007A00806880937A001092C10000E011E07A
:1003600058E0E52E51E0F52EE8018991282F30E084
:10037000F901EC55FF4F949120573F4FF90124911B
:10038000222399F030E0220F331FF901EA57FF4F83
:10039000A591B491F901E458FF4F259134912FB7FD
:1003A000F894EC919E2B9C932FBF60E00E947B0001
:1003B000EC16FD06D1F620E0A22E20E0B22E90E051
:1003C000E92E91E0F92EF701D1907F0161E08D2DAA
:1003D0000E947B000E94EC0060E08D2D0E947B005B
:1003E000CE15DF0581F786E0E82E81E0F82EF701D3
:1003F000D08061E08D2D0E947B000E94EC0060E0C7
:100400008D2D0E947B00F1E0EF1AF1080E151F05FB
:1004100071F7A114B10499F20E940000D0CFF894B2
:02042000FFCF0C
:080422000001020304050607B6
:00000001FF
